:020000040000fa
:080000000002040000000000f2
:020000040000fa
:040008008209000069
:020000040000fa
:04000c0024030000c9
:020000040000fa
:040010006603000083
:020000040000fa
:0400140044030000a1
:020000040000fa
:04001800860300005b
:020000040000fa
:04001c008209000055
:020000040000fa
:040020008209000051
:020000040000fa
:04002400820900004d
:020000040000fa
:040028008209000049
:020000040000fa
:04002c008209000045
:020000040000fa
:040030008209000041
:020000040000fa
:04003400820900003d
:020000040000fa
:040038008209000039
:020000040000fa
:04003c008209000035
:020000040000fa
:040040008209000031
:020000040000fa
:04004400820900002d
:020000040000fa
:040048008209000029
:020000040000fa
:04004c008209000025
:020000040000fa
:040050008209000021
:020000040000fa
:040054007e06000024
:020000040000fa
:04005800220600007c
:020000040000fa
:04005c008209000015
:020000040000fa
:040060008209000011
:020000040000fa
:04006400820900000d
:020000040000fa
:040068008209000009
:020000040000fa
:04006c008209000005
:020000040000fa
:040070008209000001
:020000040000fa
:0400740082090000fd
:020000040000fa
:0400780082090000f9
:020000040000fa
:04007c0082090000f5
:020000040000fa
:0400800082090000f1
:020000040000fa
:0400840082090000ed
:020000040000fa
:0400880082090000e9
:020000040000fa
:04008c0082090000e5
:020000040000fa
:0400900082090000e1
:020000040000fa
:0400940082090000dd
:020000040000fa
:0400980082090000d9
:020000040000fa
:04009c0082090000d5
:020000040000fa
:0400a00056070000ff
:020000040000fa
:0400a400fa06000058
:020000040000fa
:0400a80082090000c9
:020000040000fa
:0400ac0082090000c5
:020000040000fa
:0400b00082090000c1
:020000040000fa
:0400b40082090000bd
:020000040000fa
:0400b80082090000b9
:020000040000fa
:0400bc0082090000b5
:020000040000fa
:0400c00082090000b1
:020000040000fa
:0400c40082090000ad
:020000040000fa
:0400c80082090000a9
:020000040000fa
:0400cc0082090000a5
:020000040000fa
:0400d00082090000a1
:020000040000fa
:0400d400820900009d
:020000040000fa
:0400d8008209000099
:020000040000fa
:0400dc008209000095
:020000040000fa
:0400e0008209000091
:020000040000fa
:0400e400820900008d
:020000040000fa
:0400e8008209000089
:020000040000fa
:0400ec008209000085
:020000040000fa
:0400f000a603000063
:020000040000fa
:0400f400820900007d
:020000040000fa
:0400f8008209000079
:020000040000fa
:0400fc008209000075
:020000040000fa
:040100008209000070
:020000040000fa
:04010400820900006c
:020000040000fa
:040108008209000068
:020000040000fa
:04010c008209000064
:020000040000fa
:040110008209000060
:020000040000fa
:04011400820900005c
:020000040000fa
:040118008209000058
:020000040000fa
:04011c008209000054
:020000040000fa
:040120008209000050
:020000040000fa
:04012400820900004c
:020000040000fa
:040128008209000048
:020000040000fa
:04012c00e4060000e5
:020000040000fa
:04013000bc07000008
:020000040000fa
:04013400820900003c
:020000040000fa
:040138008209000038
:020000040000fa
:04013c008209000034
:020000040000fa
:040140008209000030
:020000040000fa
:04014400820900002c
:020000040000fa
:040148008209000028
:020000040000fa
:04014c008209000024
:020000040000fa
:040150008209000020
:020000040000fa
:04015400820900001c
:020000040000fa
:040158008209000018
:020000040000fa
:04015c008209000014
:020000040000fa
:040160008209000010
:020000040000fa
:04016400820900000c
:020000040000fa
:040168008209000008
:020000040000fa
:04016c0094080000f3
:020000040000fa
:040170002e08000055
:020000040000fa
:04017400d2070000ae
:020000040000fa
:0401780082090000f8
:020000040000fa
:04017c0082090000f4
:020000040000fa
:04018000f605000080
:020000040000fa
:040184006c09000002
:020000040000fa
:040188000609000064
:020000040000fa
:04018c00aa080000bd
:020000040000fa
:0401900082090000e0
:020000040000fa
:0401940082090000dc
:020000040000fa
:0401980082090000d8
:020000040000fa
:04019c0082090000d4
:020000040000fa
:0401a00082090000d0
:020000040000fa
:0401a40082090000cc
:020000040000fa
:0401a80082090000c8
:020000040000fa
:0401ac0082090000c4
:020000040000fa
:0401b00082090000c0
:020000040000fa
:0401b40082090000bc
:020000040000fa
:0401b80082090000b8
:020000040000fa
:0401bc0082090000b4
:020000040000fa
:0401c00082090000b0
:020000040000fa
:0401c40082090000ac
:020000040000fa
:0401c80082090000a8
:020000040000fa
:0401cc0082090000a4
:020000040000fa
:0401d00082090000a0
:020000040000fa
:0401d400820900009c
:020000040000fa
:0401d8008209000098
:020000040000fa
:0401dc008209000094
:020000040000fa
:0401e0008209000090
:020000040000fa
:0401e400820900008c
:020000040000fa
:0401e8008209000088
:020000040000fa
:0401ec008209000084
:020000040000fa
:0401f0008209000080
:020000040000fa
:0401f400820900007c
:020000040000fa
:0401f8008209000078
:020000040000fa
:0401fc008209000074
:020000040000fa
:040208008209000067
:020000040000fa
:04020c0024030000c7
:020000040000fa
:040210006603000081
:020000040000fa
:04021400440300009f
:020000040000fa
:040218008603000059
:020000040000fa
:04021c008209000053
:020000040000fa
:04022000820900004f
:020000040000fa
:04022400820900004b
:020000040000fa
:040228008209000047
:020000040000fa
:04022c008209000043
:020000040000fa
:04023000820900003f
:020000040000fa
:04023400820900003b
:020000040000fa
:040238008209000037
:020000040000fa
:04023c008209000033
:020000040000fa
:04024000820900002f
:020000040000fa
:04024400820900002b
:020000040000fa
:040248008209000027
:020000040000fa
:04024c008209000023
:020000040000fa
:04025000820900001f
:020000040000fa
:040254007e06000022
:020000040000fa
:04025800220600007a
:020000040000fa
:04025c008209000013
:020000040000fa
:04026000820900000f
:020000040000fa
:04026400820900000b
:020000040000fa
:040268008209000007
:020000040000fa
:04026c008209000003
:020000040000fa
:0402700082090000ff
:020000040000fa
:0402740082090000fb
:020000040000fa
:0402780082090000f7
:020000040000fa
:04027c0082090000f3
:020000040000fa
:0402800082090000ef
:020000040000fa
:0402840082090000eb
:020000040000fa
:0402880082090000e7
:020000040000fa
:04028c0082090000e3
:020000040000fa
:0402900082090000df
:020000040000fa
:0402940082090000db
:020000040000fa
:0402980082090000d7
:020000040000fa
:04029c0082090000d3
:020000040000fa
:0402a00056070000fd
:020000040000fa
:0402a400fa06000056
:020000040000fa
:0402a80082090000c7
:020000040000fa
:0402ac0082090000c3
:020000040000fa
:0402b00082090000bf
:020000040000fa
:0402b40082090000bb
:020000040000fa
:0402b80082090000b7
:020000040000fa
:0402bc0082090000b3
:020000040000fa
:0402c00082090000af
:020000040000fa
:0402c40082090000ab
:020000040000fa
:0402c80082090000a7
:020000040000fa
:0402cc0082090000a3
:020000040000fa
:0402d000820900009f
:020000040000fa
:0402d400820900009b
:020000040000fa
:0402d8008209000097
:020000040000fa
:0402dc008209000093
:020000040000fa
:0402e000820900008f
:020000040000fa
:0402e400820900008b
:020000040000fa
:0402e8008209000087
:020000040000fa
:0402ec008209000083
:020000040000fa
:0402f000a603000061
:020000040000fa
:0402f400820900007b
:020000040000fa
:0402f8008209000077
:020000040000fa
:0402fc008209000073
:020000040000fa
:04030000820900006e
:020000040000fa
:04030400820900006a
:020000040000fa
:040308008209000066
:020000040000fa
:04030c008209000062
:020000040000fa
:04031000820900005e
:020000040000fa
:04031400820900005a
:020000040000fa
:040318008209000056
:020000040000fa
:04031c008209000052
:020000040000fa
:04032000820900004e
:020000040000fa
:04032400820900004a
:020000040000fa
:040328008209000046
:020000040000fa
:04032c00e4060000e3
:020000040000fa
:04033000bc07000006
:020000040000fa
:04033400820900003a
:020000040000fa
:040338008209000036
:020000040000fa
:04033c008209000032
:020000040000fa
:04034000820900002e
:020000040000fa
:04034400820900002a
:020000040000fa
:040348008209000026
:020000040000fa
:04034c008209000022
:020000040000fa
:04035000820900001e
:020000040000fa
:04035400820900001a
:020000040000fa
:040358008209000016
:020000040000fa
:04035c008209000012
:020000040000fa
:04036000820900000e
:020000040000fa
:04036400820900000a
:020000040000fa
:040368008209000006
:020000040000fa
:04036c0094080000f1
:020000040000fa
:040370002e08000053
:020000040000fa
:04037400d2070000ac
:020000040000fa
:0403780082090000f6
:020000040000fa
:04037c0082090000f2
:020000040000fa
:04038000f60500007e
:020000040000fa
:040384006c09000000
:020000040000fa
:040388000609000062
:020000040000fa
:04038c00aa080000bb
:020000040000fa
:0403900082090000de
:020000040000fa
:0403940082090000da
:020000040000fa
:0403980082090000d6
:020000040000fa
:04039c0082090000d2
:020000040000fa
:0403a00082090000ce
:020000040000fa
:0403a40082090000ca
:020000040000fa
:0403a80082090000c6
:020000040000fa
:0403ac0082090000c2
:020000040000fa
:0403b00082090000be
:020000040000fa
:0403b40082090000ba
:020000040000fa
:0403b80082090000b6
:020000040000fa
:0403bc0082090000b2
:020000040000fa
:0403c00082090000ae
:020000040000fa
:0403c40082090000aa
:020000040000fa
:0403c80082090000a6
:020000040000fa
:0403cc0082090000a2
:020000040000fa
:0403d000820900009e
:020000040000fa
:0403d400820900009a
:020000040000fa
:0403d8008209000096
:020000040000fa
:0403dc008209000092
:020000040000fa
:0403e000820900008e
:020000040000fa
:0403e400820900008a
:020000040000fa
:0403e8008209000086
:020000040000fa
:0403ec008209000082
:020000040000fa
:0403f000820900007e
:020000040000fa
:0403f400820900007a
:020000040000fa
:0403f8008209000076
:020000040000fa
:0403fc008209000072
:020000040000fa
:10040000efa320000e7f22000e01880000000000f4
:10041000000020000000e000020032000001200087
:100420002002880014000700b80307000000e00065
:1004300003003a006003230001002000020037009f
:100440000000200001002000810f70000100320038
:1004500014000700000020000000e000020032004d
:1004600000000200000000006631020000000000f1
:100470000040da000000fe004440a900000b20000c
:100480000000e000030032000020200090018800fe
:100490004440a800000006008a1f78008b1f7800e7
:1004a00000000600a1028800800478000000eb0034
:1004b0001f003700e284440054a0b4009905ba003c
:1004c000e284440054a0b4009906ba00e2844400d7
:1004d00054a0b4000006eb00476fde00fd07b20039
:1004e000ae018800636ce10003003a00eaff0700f8
:1004f0000000eb000e003700606ce10008003a00dd
:10050000004deb000a05e800020039003420ec0041
:100510000af0a0008b05e900f9ff3e000400370057
:100520006168e100010032000086eb000b0007006b
:1005300019c7ba001905ba000e04e00003003a001a
:100540000a00e000dbff3a0000000600fe07b200f0
:10055000ae0288008a047800f5ff37000cd0a300b3
:10056000e20f4d001c00390089027800354dba00b9
:100570000a05e800020039003420ec000af0a0006f
:100580008b05e9000f003200254dba000a05e8008e
:10059000020039003420ec000af0a0008b05e900cd
:1005a000080032000c00e0000600320015cdba0051
:1005b0000a05e800020039003420ec000af0a0002f
:1005c0008b05e9008984e80054a0b4000b00e0002a
:1005d000e2ff3a00000006009902ba00055d7800cb
:1005e0008b05e900f7ff3200c82ade00055d7800c0
:1005f0008b05e900f3ff32000c00e000f1ff320050
:1006000019ddba00eeff3700000000000000000016
:1006100000000000000000000000000000000000da
:1006200000000000000000000000000000000000ca
:1006300000000000000000000000000000000000ba
:1006400000000000000000003600f800809fbe009f
:10065000829fbe00849fbe00869fbe000000fa00fd
:100660008020a9000000eb000c1707000080fa00b2
:100670004f03be004f02be004f01be004f00be0040
:100680003600f900004006003600f800809fbe00ea
:10069000829fbe00849fbe00869fbe000000fa00bd
:1006a000031707008040a90010002000fb16070078
:1006b0000080fa004f03be004f02be004f01be0093
:1006c0004f00be003600f900004006003600f8007a
:1006d000809fbe00829fbe00849fbe00869fbe009a
:1006e0000000fa008060a90020002000eb1607003f
:1006f0000080fa004f03be004f02be004f01be0053
:100700004f00be003600f900004006003600f80039
:10071000809fbe00829fbe00849fbe00869fbe0059
:100720000000fa008080a90030002000db160700de
:100730000080fa004f03be004f02be004f01be0012
:100740004f00be003600f900004006003600f800f9
:10075000809fbe00829fbe00849fbe00869fbe0019
:100760000000fa008a40a900a117800000082000bc
:10077000008060000000e00008003200f4e2a90000
:100780004028ef0030428000200090008000eb0005
:10079000010878004628ef000d0137000042800074
:1007a0008000eb00b200200003002000820f500008
:1007b000838f5800fc003e00006001000b003700f2
:1007c00039003700750037009c003700f300370010
:1007d000c8003700d9003700f0003700db003700d1
:1007e000f1003700340037005000370080832000cc
:1007f00020009000620060000000e000f3003a007a
:100800008083200010009000304288008083200008
:10081000100090001040780042e8b700808320006c
:10082000100090001000900020428800808320007b
:1008300010009000e6004000808320001100980026
:100840008083200090009000009e2000808f500048
:1008500003003a0080832000a19d20001100980031
:1008600080832000a00090000100a10021009800da
:10087000808320009000900080832000100078008a
:10088000808f500004003a0080832000a000900078
:100890000110a00021009800f002a8002000200014
:1008a00000428800ca003700f022a8002000200083
:1008b00000428800c6003700a11780000000280011
:1008c000008060000000e00008003200808320000b
:1008d000604090008040e8008083200061409800e4
:1008e00040002000de120700b900370040428000bf
:1008f0008000d100f00f20000080600060178800a9
:100900004042800061006000004078000004e00088
:1009100003003200b000200000428800ac00370025
:100920003000200000428800a9003700a117800095
:1009300000002800008060000000e0000800320095
:1009400080832000604090008040e8008083200089
:100950006140980040002000c11207009c00370051
:10096000f022a800404280004800de00e60060005f
:10097000000f2000010070004042880040428000cb
:100980000000a0004042880010c0b3004ae8b70051
:1009900020002000004288008d0037004ac8bf00b8
:1009a000e14f50000a003200204280001000780021
:1009b0004042880020428000200090006042880071
:1009c00020428000204090004ee8b7000100370030
:1009d0004a68ef0041428000f00f2000808f5000f5
:1009e00009003600404280004800de00e60060005a
:1009f000000f20000100700060178800a000200098
:100a00000042880072003700404280006017880072
:100a10004042800061006000004078000004e00077
:100a200003003200500020000042880068003700b8
:100a3000300020000042880065003700a1178000c8
:100a400000002800008060000000e0000900320083
:100a500080832000604090008040e8008083200078
:100a600061409800f5e2a900500020007c120700c8
:100a7000570037004ec8bf008080fb008100e900ae
:100a8000cf08de00814078000040e9004ee8b70062
:100a90000104e000100032002042800066004000a7
:100aa0002042880042c8bf000040e90042e8b70089
:100ab00042c8bf000004e00003003a00200020000c
:100ac0006712070042003700f022a8002000200033
:100ad000004288003e00370060428000904078006d
:100ae0008180fb00611788000000e80060428800f8
:100af00037003700a1178000000028000080600048
:100b00000000e00009003200808320006040900077
:100b10008040e80080832000614098004000200071
:100b20004f120700f5e2a90029003700f062a80083
:100b3000800020000042880025003700800020004f
:100b400000428800f062a800210037006042800067
:100b50005117800081407800014878000000e800cb
:100b6000604288004ec8bf000040e9004ee8b70070
:100b70004ec8bf000004e00004003200f0a2a9004b
:100b8000600020000042880002003700f0a2a800a8
:100b900022120700f082a8000d003700200020007c
:100ba0002f1207000a003700808320006040900069
:100bb0008040e800808320006140980060002000b1
:100bc00027120700000000000100370000000000ad
:100bd0000080fa004f03be004f02be004f01be006e
:100be0004f00be003600f900004006003600f80055
:100bf000809fbe00829fbe00849fbe00869fbe0075
:100c00003200f8003400f80010002000a001880035
:100c100000202000900188000000fa009a020700de
:100c20000080fa003400f9003200f9004f03be00e2
:100c30004f02be004f01be004f00be003600f9005b
:100c4000004006003600f800809fbe00829fbe0074
:100c5000849fbe00869fbe000000fa0040418000d5
:100c6000000001002141800010418000808f500071
:100c700002003a009580a900190037008580a9007c
:100c80001000370020418000904078008180fb00f8
:100c9000212888000000e8002041880021418000d0
:100ca000509f2000808f500002003a00c09e20001c
:100cb000204188002141800010418000808f500039
:100cc0000600320011288000002020000080600013
:100cd0000000e000ebff32000100370000000000e0
:100ce0000080fa004f03be004f02be004f01be005d
:100cf0004f00be003600f900004006003600f80044
:100d0000809fbe00829fbe00849fbe00869fbe0063
:100d10000000fa0050418000000001008560a90039
:100d20001e003700f04080003128800081407800ac
:100d300001487800f1408000d09f2000808f500053
:100d400009003200f04080008000e800004180008f
:100d5000808f500004003200f04080000000e80066
:100d6000f04088000d003700f1408000d09f200047
:100d7000808f500007003a0001418000509f200002
:100d8000808f500003003200509f2000f040880008
:100d90000200370010c0b30026e8b700102880001a
:100da000610060000000e000deff3a000080fa0011
:100db0004f03be004f02be004f01be004f00be00f9
:100dc0003600f90000400600801f78000000fa009d
:100dd00010288000620060000000e0000100320086
:100de0000225a9008c20a9000080fa004f0078009d
:100df000004006003600f800809fbe00829fbe00c3
:100e0000849fbe00869fbe000000fa006041800003
:100e1000000001002141800010418000808f5000bf
:100e200002003a0097e0a9001900370087e0a90006
:100e30001000370020418000904078008180fb0046
:100e4000d12888000000e80020418800214180006e
:100e5000509f2000808f500002003a00c09e20006a
:100e6000204188002141800010418000808f500087
:100e700006003200c12880000020200000806000b1
:100e80000000e000ebff320001003700000000002e
:100e90000080fa004f03be004f02be004f01be00ab
:100ea0004f00be003600f900004006003600f80092
:100eb000809fbe00829fbe00849fbe00869fbe00b2
:100ec0000000fa00704180000000010087c0a90006
:100ed0001e003700f0408000e1288000814078004b
:100ee00001487800f1408000d09f2000808f5000a2
:100ef00009003200f04080008000e80000418000de
:100f0000808f500004003200f04080000000e800b4
:100f1000f04088000d003700f1408000d09f200095
:100f2000808f500007003a0001418000509f200050
:100f3000808f500003003200509f2000f040880056
:100f40000200370010c0b30026e8b700c0288000b8
:100f5000610060000000e000deff3a000080fa005f
:100f60004f03be004f02be004f01be004f00be0047
:100f70003600f90000400600801f78000000fa00eb
:100f8000c0288000620060000000e0000100320024
:100f90001825a9008c40a9000080fa004f007800b5
:100fa000004006003600f800809fbe00829fbe0011
:100fb000849fbe00869fbe000000fa008041800032
:100fc000000001002141800010418000808f50000e
:100fd00002003a009e60a900190037008e60a90047
:100fe0001000370020418000904078008180fb0095
:100ff000812988000000e80020418800214180000c
:10100000509f2000808f500002003a00c09e2000b8
:10101000204188002141800010418000808f5000d5
:10102000060032007129800000202000008060004e
:101030000000e000ebff320001003700000000007c
:101040000080fa004f03be004f02be004f01be00f9
:101050004f00be003600f900004006003600f800e0
:10106000809fbe00829fbe00849fbe00869fbe0000
:101070000000fa0090418000000001008e40a900ad
:101080001e003700f04080009129800081407800e8
:1010900001487800f1408000d09f2000808f5000f0
:1010a00009003200f04080008000e800004180002c
:1010b000808f500004003200f04080000000e80003
:1010c000f04088000d003700f1408000d09f2000e4
:1010d000808f500007003a0001418000509f20009f
:1010e000808f500003003200509f2000f0408800a5
:1010f0000200370010c0b30026e8b7007029800056
:10110000610060000000e000deff3a000080fa00ad
:101110004f03be004f02be004f01be004f00be0095
:101120003600f90000400600801f78000000fa0039
:1011300070298000620060000000e00001003200c1
:101140002e25a9008e20a9000080fa004f0078000b
:10115000004006003600f800809fbe00829fbe005f
:10116000849fbe00869fbe000000fa00a041800060
:10117000000001002141800010418000808f50005c
:1011800002003a009f20a900190037008f20a90013
:101190001000370020418000904078008180fb00e3
:1011a000e12988000000e8002041880021418000fa
:1011b000509f2000808f500002003a00c09e200007
:1011c000204188002141800010418000808f500024
:1011d00006003200d129800000202000008060003d
:1011e0000000e000ebff32000100370000000000cb
:1011f0000080fa004f03be004f02be004f01be0048
:101200004f00be003600f900004006003600f8002e
:10121000809fbe00829fbe00849fbe00869fbe004e
:101220000000fa00b0418000000001008f00a9001a
:101230001e003700f0408000f129800081407800d6
:1012400001487800f1408000d09f2000808f50003e
:1012500009003200f04080008000e800004180007a
:10126000808f500004003200f04080000000e80051
:10127000f04088000d003700f1408000d09f200032
:10128000808f500007003a0001418000509f2000ed
:10129000808f500003003200509f2000f0408800f3
:1012a0000200370010c0b30026e8b700d029800044
:1012b000610060000000e000deff3a000080fa00fc
:1012c0004f03be004f02be004f01be004f00be00e4
:1012d0003600f90000400600801f78000000fa0088
:1012e000d0298000620060000000e00001003200b0
:1012f0003a25a9008ee0a9000080fa004f0078008e
:10130000004006000040da000000fe00000005007a
:101310008001780002003700b15978000201e9002d
:101320000200e000fcff3a000000060080017800a7
:1013300002003700815978000201e9000200e00054
:08134000fcff3a00000006006a
:020000040000fa
:101348001201000000020000020000000008000076
:10135800d80400000a00000000010000010200009b
:101368000001000009020000430000000201000023
:1013780000c0000032090000040000000001000065
:101388000202000001000000052400000010000017
:1013980001040000240200000205000024060000e9
:1013a8000001000005240000010000000107000002
:1013b80005810000030a0000000200000904000083
:1013c80001000000020a0000000000000007000001
:1013d80005020000024000000000000007050000b0
:1013e800820200004000000000000000040300002a
:1013f80009040000340300004d00000069000000eb
:1014080063000000720000006f000000630000002d
:101418006800000069000000700000002000000063
:101428005400000065000000630000006800000030
:101438006e0000006f0000006c0000006f000000ec
:10144800670000007900000020000000490000004b
:101458006e000000630000002e0000001a03000068
:1014680050000000720000006f00000064000000df
:1014780075000000630000007400000020000000f8
:101488004e000000610000006d00000065000000d3
:10149800b6890000fa890000fe890000328a00003f
:020000040000fa
:1014a8000200fa009ec0a9000080eb0070208800ae
:1014b8000080eb00502088002a24ef004200200022
:1014c8008000eb00c042200096ff070020002000ab
:1014d800302188002824ef000644a900f0092000e4
:1014e80080208800f00920006020880002c4a8003d
:1014f8000804a80000a020004800de00c0208800e2
:101508000040eb00004f7800070037001e80fb000a
:10151800c200dd0000a02000008140006000b8008b
:101528000089be001e4fe8001e407800eb4f5000b7
:10153800f6ff36001424a8001624ef0014a4a9000e
:101548001424a900800020005020880080992000e1
:101558008040eb0001487800e09920008040eb00d3
:1015680001487800f099200090407800e0c06000c1
:1015780001487800009a200090407800e0c06000a0
:101588000148780050208000680060000000e000fa
:10159800ecff3a0010c0b30013e8b70010c0b30066
:1015a80014e8b7001568ef001668ef000d68ef0043
:1015b8000040eb00004f7800150037001e80fb004c
:1015c8008000400000992000008040008000eb006f
:1015d800010878001e80fb0080004000a0982000d1
:1015e800008040008000eb00010878001e80fb00ae
:1015f800319a20000041eb00827078001e80fb00c9
:10160800619a20000041eb00827078001e4fe800cc
:101618001e407800e24f5000e8ff360080a020000e
:10162800804c8800d000200050218800909a20002b
:101638001050880000a0200081c0b3000148780045
:1016480010a0200041c0b3000148780010a020007d
:1016580010407800804078000174a00010a020009d
:10166800014878000268ef001828ef001a28ef00f8
:101678001c68ef000028ef000080fa000000060058
:101688000200fa0000408000e10f50000b003a0011
:10169800a120800000042000008060000000e0001d
:1016a80006003a000080eb00502088000c04a800d7
:1016b8000c84a80020002000004088000020800042
:1016c800700060000000e000070032001020800079
:1016d800700060000000e0000300320000012000fc
:1016e80000208800bc0407004020800062006000e1
:1016f8000000e000020032008ec0a900a1003700ff
:1017080050208000610060000000e0000a00320004
:1017180060208000610060000000e00006003200e8
:101728005fff07009ec0a80040002000004088001e
:1017380010002000502088005020800070006000b9
:101748000000e000050032006020800070006000aa
:101758000000e00001003200920407000120800030
:1017680000042000008060000000e0000300320058
:101778000004200000208800ee06070050208000aa
:10178800640060000000e000140032006020800067
:10179800640060000000e000040032001200200035
:1017a8008000eb00300720005a120700400020009c
:1017b8005020880011c8bf000004e0000300320078
:1017c80011c8bf000040e90011e8b70011c8bf0008
:1017d8000004e00001003a00a30107005120800046
:1017e80000082000008060000000e00006003200d1
:1017f8006120800000082000008060000000e000f8
:10180800010032004b040700502080006200600095
:101818000000e0000c0032006020800062006000e0
:101828000000e00008003200120020008000eb00f9
:10183800f0ff2700371207000080eb0070208800b7
:10184800200020005020880000408000e30f500056
:1018580002003e008ec0a9004a00370060208000c8
:10186800680060000000e000450032000040eb0026
:10187800004f78003d00370050208000680060006d
:101888000000e0003d003200902080000040780019
:101898000ee8b7000ec8bf000080fb004400de0061
:1018a800004078000fe8b700800020005020880032
:1018b8000ec8bf00684060000004e00011003a0054
:1018c8000fc8bf000081fb008080fb00609a2000e9
:1018d800008040009040780061c060000004a200d1
:1018e800e1406000609a200000004100e1c0600013
:1018f800104178000204a10081407100014878007d
:10190800100037000fc8bf000081fb008080fb007b
:10191800309a2000008040009040780061c060004c
:101928000004a200e1406000309a2000000041005d
:10193800e1c06000104178000204a10081407100fc
:10194800014878000fc8bf000004e00002003a0018
:101958002d040700040037000001eb00e18020009f
:1019680020072000eb1107001e4fe8001e407800fa
:10197800e34f5000c0ff36000100370000000000b0
:101988008ec0a9000080fa00000006000400fa00da
:1019980020479800314798003e4090000080fb00a7
:1019a800680060000000e000030032008040eb00a7
:1019b8002e4090009b0107003e4090000080fb00f5
:1019c800640060000000e0000300320011c0b300b2
:1019d8002e40900093010700a14220002e40900065
:1019e8000080fb0000004000008f40001e007800cf
:1019f800be409000014878000080fa000000060010
:101a08000800fa00204798003147980022079800fc
:101a1800634798003e4090000004e0000700320051
:101a28002e4090000080fb008000400000992000bc
:101a380000804000100f7800060037002e4090000c
:101a48000080fb0080004000a0982000008040003b
:101a5800100f78001e0078000000e00002003a0035
:101a68000000eb0037003700ae0090001e00780041
:101a7800110098001e007800ee40900001487800a0
:101a88001e0078001040900002c4b300824060003d
:101a98001e007800114098001e0078001040900049
:101aa800804078000134a0001e00780011409800a2
:101ab8001e00780010409000804078000174a0005b
:101ac8001e007800114098003e4090000004e0009d
:101ad8000e0032002e4090000080fb00ae409000c7
:101ae8008180fb00018140000199200081004100b4
:101af800910078000120a200000140000099200018
:101b080000004100010878000d0037002e409000c9
:101b18000080fb00ae4090008180fb000181400006
:101b2800a198200081004100910078000120a200c6
:101b380000014000a0982000000041000108780042
:101b48001e0078000080fa00000006000400fa0079
:101b580020479800314798002e4090000004e0008c
:101b680017003a003040800081c0b3000148780077
:101b780030408000919a2000110098003040800089
:101b8800c1c0b3001140980030408000314080004f
:101b9800914090000174a00011409800804c800092
:101ba80041c0b30011409800804c8000814c8000f7
:101bb800914090000174a000114098002e00370059
:101bc8002e4090000080fb0000004000800078005c
:101bd8003e4090000080fb00008040004300dd0094
:101be8008000780000a02000008f40001e007800d0
:101bf80010409000804078000124a0001e0078006a
:101c0800114098001e007800104090008040780035
:101c18000174a0001e007800114098002e4090002a
:101c28000080fb0000004000800078003e409000eb
:101c38000080fb00008040004300dd00e40040001d
:101c480000a02000008f40001e0078001040900087
:101c5800804078000124a0001e0078001140980000
:101c68001e00780010409000804078000174a000a9
:101c78001e007800114098000080fa00000006005d
:101c88000200fa00004f7800a12080000002200026
:101c9800008060000000e000510032001e80fb0060
:101ca8008000400000992000008040001002780069
:101cb8001e80fb008000400000992000008040004a
:101cc800100078001001be00000420000100200070
:101cd8008202780003017800800178000100780012
:101ce80083826200000061008000eb00c000dd001c
:101cf800000020000001be006128b800000171004a
:101d080081817100028abe001e80fb0080004000b5
:101d18000099200000804000100278001e80fb001f
:101d280080004000009920000080400010007800ea
:101d38001001be000004200001002000000069001e
:101d480081806900008abe001e80fb009e80fb0027
:101d58000181400001992000810041009100780034
:101d68000120a2000001400000992000000041006d
:101d7800010878001e80fb008000400000992000c8
:101d880000804000900078001e80fb0000014000a9
:101d980000992000000041001000780010409000d9
:101da8000044b200904098001e80fb008000400074
:101db8000099200000804000900078001e80fb0001
:101dc8000001400000992000000041001000780048
:101dd8001041900000c4b300004069009040980092
:101de8000080fa00000006000000fa001424ef004a
:101df8000c24ef000028ef000080fa000000060025
:101e08000000fa00004080000000e00014003a00e2
:101e18001424ef000c24ef0020002000302188005b
:101e28002824ef000644a900f0092000802088003b
:101e3800f00920006020880002c4a8009ec0a80005
:101e4800010037001404a800a02080006100600091
:101e58000000e000fbff3200100020000040880076
:101e68000080fa00000006000000fa0013c8bf0056
:101e78000004a2000004e0003400320010c0b300e7
:101e880013e8b70014c8bf000004a2000004e00073
:101e98002e00320010c0b30014e8b70009c8bf0014
:101ea800e24f50000c003a00804c80008040eb006c
:101eb80001487800804c800081c4b300114098002c
:101ec800804c8000814c8000914090000174a000fb
:101ed800114098001d00370009c8bf00e14f5000ad
:101ee8001a003a001068ef002040800081c0b3005b
:101ef8000148780020408000919a20001100980045
:101f08002040800041c0b30011409800204080006c
:101f180021408000914090000174a0001140980079
:101f280010c0b30010e8b7003040800081c0b30093
:101f38000148780030408000919a200011009800f4
:101f48003040800001c8b300114098000080fa00ba
:101f5800000006000000fa001568ef001668ef00a0
:101f680009c8bf00e24f50000f003a00304080001f
:101f780081c0b3000148780030408000119b2000e8
:101f8800110098003040800081c4b30011409800cf
:101f98003040800031408000914090000174a000e2
:101fa800114098001d003700f09a20001080fb00b7
:101fb800019b20009180fb00c808dd000100700033
:101fc80080007800d04c8000808f500007003100de
:101fd800f09a20001080fb00019b20009180fb00fc
:101fe800c808dd0001007000d04c8800960007008a
:101ff800804c8000119b200011009800804c8000cc
:1020080081c4b30011409800804c8000814c80004e
:10201800914090000174a000114098000080fa00df
:10202800000006000400fa00204798003147980095
:1020380000a02000000f78002e4090000080fb00d8
:1020480000004000800078003e4090000080fb00c7
:10205800008040004300dd001e0f40001e00780095
:102068009000780001f0a100010878003e4090003f
:102078000004e00007003a002e4090000080fb00ba
:1020880080004000a0982000008040001e087800d2
:10209800060037002e4090000080fb0080004000c2
:1020a80000992000008040001e0878001e0078007b
:1020b8009000780001e0a100010878009e007800f7
:1020c800648040009000780001e0a00001087800da
:1020d8000080fa00000006000000fa0014a4a9001d
:1020e800c14c800000082000008060000000e00073
:1020f80027003a00e09920009040780000c8b3001b
:1021080000c060000004e0000a00320020c0b300f4
:1021180009e8b70016c8bf000004a2000004e000e8
:10212800010032008bff07001468ef001368ef000e
:10213800430037003040800081c0b3000148780078
:1021480030408000919a20001100980030408000b3
:10215800c1c0b30011409800304080003140800079
:10216800914090000174a00011409800804c8000bc
:1021780041c0b30011409800804c8000814c800021
:10218800914090000174a000114098002c00370085
:10219800909a20009040780000c8b30000c060000a
:1021a8000004e0000f00320010c0b30009e8b700d7
:1021b80015c8bf000004a2000004e00001003200be
:1021c80064ff07001468ef001368ef0012c8bf002f
:1021d8000004a2000004e0001900320022ff0700fa
:1021e8001700370020c0b30009e8b700304080006e
:1021f80081c0b3000148780030408000919a2000e7
:10220800110098003040800041c0b3001140980090
:102218003040800031408000914090000174a0005f
:10222800114098001468ef001368ef0012c8bf004f
:102238000004a2000004e000010032000aff0700c9
:102248000080fa00000006000200fa0080c0b30017
:10225800004f7800d04c8000e70f50000d003e0082
:10226800d04c8000004f780008c8bf000004e00090
:1022780003003a0010c0b30008e8b70005003700b3
:1022880008c8bf00e14f500002003a0020c0b30068
:1022980008e8b700d14c80001e80fb000080500089
:1022a800d04c8800804c80001e487800109b20008d
:1022b80050408800c04c8000610060000000e000d1
:1022c80017003a000900370051408000b04c8000e8
:1022d80010417800824878008100e8005140880069
:1022e8000000e800b04c88001e4fe9001e4078004e
:1022f8000004e000f4ff3a000c0037005140800071
:10230800b04c800010417800824878008100e800d5
:10231800514088000000e800b04c88001e4fe900da
:102328001e4078000004e000f4ff3a000080fa0044
:10233800000006000200fa0020408000104f7800dc
:102348009e80fb00f09920001080fb00029a20007c
:102358001281fb004811dd0002007000808f5000e0
:1023680007003600f09920001080fb00019a200039
:102378009180fb00c808dd0001007000004f780064
:10238800f09920001080fb00019a20009180fb004a
:10239800c808dd0001007000800078001e80fb0086
:1023a80000805000f10f200001016000f199200029
:1023b80091417800e0c1610002c171008248780053
:1023c800c800de00009a20001041780060416100da
:1023d80081407100014878000040eb0010479800e8
:1023e8001c003700c09920001080fb00d199200004
:1023f8009180fb00c808dd00010070009e4090003d
:102408008180fb00129b2000e2c078000148780020
:102418000000e800f10f200001016000c1992000d0
:1024280091417800e0c1610002c1710082487800e2
:10243800c800de00d099200010417800604161009a
:1024480081407100014878001e4090000040e8007b
:10245800104798001e4090009e4f5000e1ff390041
:10246800f09920001080fb00019a20009180fb0069
:10247800c808dd00010070000000e0001e00320006
:102488003040800081c0b3000148780030408000af
:10249800119b2000110098002040800090007800d7
:1024a80000002400008060000000e00009003a00fd
:1024b8003040800081c4b300114098003040800053
:1024c80031408000914090000174a00011409800b4
:1024d8002f0037003040800081c0b30011409800c1
:1024e8003040800031408000914090000174a0008d
:1024f80011409800260037003040800081c0b300aa
:102508000148780030408000919a2000110098001e
:102518003040800041c0b300114098003040800036
:1025280031408000914090000174a0001140980053
:10253800109a20001080fb00219a20009180fb0057
:10254800c808dd00010070000000e000070032004c
:10255800109a20001080fb00219a20009180fb0037
:10256800c808dd000100700000000100e0992000ab
:10257800904078000174a1000148780012c8bf009b
:102588000004a2000004e0000100320036fe07004b
:102598000080fa00000006000200fa00c04c80002b
:1025a8000070a000c04c8800420020008000eb00b2
:1025b800c04220005bfb0700020320008000eb0004
:1025c80000a0200057fb07001424a8000040eb00df
:1025d800004f7800090037001e80fb00319a200068
:1025e8000041eb00827078001e80fb00619a200099
:1025f8000041eb00827078001e4fe8001e40780012
:10260800e24f5000f4ff3600220020008000eb006b
:102618008098200043fb07001424a90080a0200014
:10262800804c880000a020002040880020408000c6
:1026380030408800b09a20001040780002e8b700c7
:1026480002c8bf000004e00003003a0000012000b7
:10265800004088000600370012002000218020007a
:1026680010002000ab0e0700000220000040880088
:102678000080fa00000006000000fa00909a20008e
:102688009040780000c8b30080cf500047003a005f
:102698008099200001ccb30001487800c09a20003e
:1026a800104078000080fb00e20f50000900320063
:1026b800e30f500023003200e10f500037003a00ca
:1026c800409a2800b04c880020012000d04c880097
:1026d80036003700b09a2000104078000004e0006f
:1026e80014003a00b09a2000104078000080fb00e7
:1026f8000000400080007800c0a42800008040004e
:1027080010007800b04c8800b04c80000080e800d1
:1027180090407800a099200001487800b04c8000d3
:102728006300400090407800b0992000014878008c
:102738001e003700809920008040eb000148780097
:102748001a003700b09a200010407800e24f50007d
:102758000e003e00b09a2000104078000080fb0078
:102768000000400080007800e0a4280000804000bd
:1027780010007800b04c8800b04c80001040780001
:102788000080fb00d04c88000800370080992000aa
:102798008040eb0001487800040037008099200051
:1027a8008040eb0001487800000000000080fa003b
:1027b800000006000200fa00109b20008040eb0099
:1027c80001487800209b20008040eb0001487800f9
:1027d800909a2000904078007fc060000080fb0045
:1027e800e10f500011003200e20f500013003200d8
:1027f8000000e00040003a00c04c80000070a000db
:10280800c04c88000cc8bf000004e000350032004e
:10281800109b200010407800804078000114a00030
:10282800109b20000148780033003700c04c80001e
:102838000070a000c04c88002f003700c04c8000fa
:102848000070a000c04c8800d09a2000904078000a
:1028580000c8b30000c060000004e00009003a00ae
:10286800d09a2000904078006fc060000080fb0084
:1028780080004000a098200000804000100f7800e1
:1028880008003700d09a2000904078006fc06000a0
:102898000080fb008000400000992000008040007c
:1028a800100f78001e0078009000780000002800c3
:1028b800008060000000e0000c0032001e0078007c
:1028c8009000780000402000008060000000e000d8
:1028d80008003200109b200011c0b30001487800a6
:1028e800050037000000000003003700000000006a
:1028f8000100370000000000c14c800000082000e3
:10290800008060000000e00008003200109b2000fa
:10291800b04c8800c04c80000000a000c04c88006b
:10292800a099200021c0b300014878000080fa0077
:10293800000006000000fa005021800062006000dc
:102948000000e0001300320020408000904090001a
:1029580000c8b30080cf50000d003a00804c8000c2
:102968009040900040c8b30080cf500008003a0063
:1029780020408000c1c0b300114098002040800072
:1029880021408000914090000174a00011409800ff
:102998002a24a90000082000502088000080fa009e
:1029a800000006000000fa000284a80000012000d0
:1029b8005020880010c0b3000de8b7001c68ef0075
:1029c8000001eb008000eb0050072000d10d07004c
:1029d8000080fa00000006000000fa000d68ef0011
:1029e8000001eb008000eb0040072000c90d070044
:1029f8000284a90000012000002088001c68ef0064
:102a08000080fa00000006000000fa00d0c2b300ff
:102a180011e8b7000ec8bf000080fb000020a1002d
:102a28000000e0001f003a000ec8bf000080fb0055
:102a38004200de00004078000080fb00c200dd009c
:102a480000a0200000804000204088002040800036
:102a580030408800304080000020a20030408800cc
:102a6800204080009000780000c023008080600033
:102a780000402300808f500008003a00204080006a
:102a8800100090008200200080007800909a2000ba
:102a98001dfa07000b000700080037003d0007007b
:102aa800060037000ec8bf000080fb000020a10010
:102ab800e80f500001003a00530007000080fa00b8
:102ac800000006000000fa000868ef001268ef0036
:102ad8001568ef001668ef001068ef000968ef004e
:102ae800804c8000814c8000914090000174a100ce
:102af80011409800804c80000020a200804c880083
:102b0800804c8000814c8000914090000174a100ad
:102b180011409800804c80000020a200804c880062
:102b28003040800031408000914090000174a10045
:102b380011409800809920008040eb0001487800ff
:102b48000000eb00d04c8800e09920008040eb00aa
:102b580001487800f099200090407800e0c06000bb
:102b680001487800009a200090407800e0c060009a
:102b780001487800820007000001eb008000eb00ac
:102b880030002000630d070053fd07000080fa00a5
:102b9800000006000000fa0009c8bf00e24f50001c
:102ba80002003a00e3fd0700150037000968ef004e
:102bb80010c8bf000004a2000004e0000f003200ab
:102bc8003040800081c0b300014878003040800068
:102bd800919a20001100980030408000c1c0b300d5
:102be80011409800304080003140800091409000b2
:102bf8000174a00011409800010037001068ef0030
:102c08000080fa00000006000200fa00804c8000f4
:102c1800100078004e00de0061406000004f780030
:102c2800804c80000020a200804c8800004080007a
:102c3800e80f50000e003a00b09a200010407800cb
:102c48008080fb00f007200000806000b020880032
:102c5800b02080000000e0000300320000012000e6
:102c68000040880002003700400020000040880033
:102c780009c8bf00e14f500025003a00804c800091
:102c8800119b2000110098006ffd070008c8bf00c5
:102c9800e24f500009003a00804c800041c0b30068
:102ca80011409800804c8000814c80009140900039
:102cb8000174a000114098002f0037001e407800d2
:102cc8000004e00009003a00804c800081c4b30091
:102cd80011409800804c8000814c80009140900009
:102ce8000174a0001140980023003700804c800038
:102cf80081c0b30011409800804c8000814c800056
:102d0800914090000174a000114098001a0037000b
:102d1800e09920009040780000c8b30000c060002f
:102d28000004e00013003200109a20001080fb001d
:102d3800219a20009180fb00c808dd000100700086
:102d48000000e00007003200109a20001080fb000d
:102d5800219a20009180fb00c808dd000100700066
:102d680000000100e0992000904078000174a10063
:102d7800014878000968ef000080fa0000000600aa
:102d88000000fa00909a2000104078000046b20037
:102d98000004e00050003a00a09a2000104078009b
:102da8000080fb00cf80de00b2002000030020007e
:102db800820f5000838f580049003e0000600100d8
:102dc8002100370022003700470037002000370075
:102dd80045003700060037000b0037003900370080
:102de8000d0037000a0037001b0037002a003700a3
:102df800c04c80000070a000c04c880080002000fb
:102e080000408800390037001bfe070037003700f4
:102e1800e1fd07003500370020802000b04c880015
:102e2800c04c80000000a000c04c8800a099200081
:102e380011c0b30001487800c04c80000070a000a9
:102e4800c04c8800290037005afe070027003700c9
:102e58002800070025003700d09a2000104078008d
:102e68008080fb008098200000804000b04c8800e3
:102e7800c04c80000000a000c04c8800a099200031
:102e880011c0b30001487800c04c80000070a00059
:102e9800c04c880015003700c04c80000070a000ae
:102ea800c04c8800d09a2000104078000080fb00b9
:102eb800b19a200011417800819820008270780032
:102ec8000a0037000001eb008000eb002000200022
:102ed800900c0700050037000000000003003700d1
:102ee8000000000001003700000000000080fa0028
:102ef800000006000600fa00b09a20001040780092
:102f0800e14f500010003a00909a200010407800dd
:102f18007f4060000004e0000b003a00c04c8000d5
:102f28000070a000c04c8800a09a200010407800d3
:102f3800e34f500003003a0010c0b3000ce8b7009c
:102f4800010037000c68ef00b09a200010407800ac
:102f58000004e000f5003a00909a20001040780044
:102f68007f406000e24f5000f0003a00d09a200005
:102f7800104078006f4060000004e000eb00320071
:102f8800d09a2000904078006fc060000080fb005d
:102f9800e20f5000e5003c000140800000022000e4
:102fa800808f5000e1003a00c04c80000070a00003
:102fb800c04c8800d09a20009040780000c8b30028
:102fc80000c060000004e00010003a00d09a200021
:102fd800104178006f4061000080fb0080004000d5
:102fe800a098200000804000100f7800d09a2000a0
:102ff800904078006fc060000080fb00619a20005c
:1030080061407800404798000f003700d09a2000b0
:10301800104178006f4061000080fb008000400094
:103028000099200000804000100f7800d09a2000fe
:10303800904078006fc060000080fb00319a20004b
:1030480061407800404798004e4090006140600021
:103058000004e00004003a001e0078000020a100ef
:10306800000f7800030037001e0078000020a00041
:10307800000f7800d09a20009040780000c8b30074
:1030880000c060000004e0000a003a00d09a200066
:10309800104178006f4061000080fb009e007800be
:1030a80000014000a09820000000410001087800bd
:1030b80009003700d09a2000904078006fc0600067
:1030c8000080fb009e00780000014000009920006d
:1030d8000000410001087800a09a20001040780004
:1030e800e34f50002c003a001e0078009000780052
:1030f80000002800008060000000e0001900320095
:10310800d09a20009040780000c8b30000c060004a
:103118000004e0000a003a00d09a2000104178002c
:103128006f4061008080fb00609a200000804000b2
:10313800904078000114a000014878000900370089
:10314800d09a2000904078006fc060008080fb001b
:10315800309a200000804000904078000114a000c0
:10316800014878001e0078001040900080407800e8
:103178000124a0001e007800114098001e0078006d
:1031880010409000804078000174a0001e00780074
:1031980011409800650037001e0078000020a2004a
:1031a800000f78001e0078009000780000002800ca
:1031b800008060000000e000110032001e0078006e
:1031c80010409000804078000174a1001e00780033
:1031d800114098001e007800104090008040780050
:1031e8000164a0001e007800114098002200200011
:1031f8009e00780050002000c60b0700060037002c
:103208001e00780010409000804078000164a00003
:103218001e007800114098001e0078000020a200cf
:10322800000f78004e409000624060000004e0000b
:1032380006003a001e007800900078000000280080
:10324800008060000000e00024003200d09a2000d6
:103258009040780000c8b30000c060000004e0009f
:103268000a003a00d09a2000104178006f406100af
:103278008080fb00609a2000008040009040780029
:103288000114a1000148780009003700d09a2000f5
:10329800904078006fc060008080fb00309a20006a
:1032a80000804000904078000114a1000148780097
:1032b8001e00780010409000b2c3b3008240600046
:1032c8001e00780011409800220020009e0078001f
:1032d800500020008f0b0700060037001e00780002
:1032e80010409000b2c3b300824060001e00780016
:1032f80011409800a1422000d09a20001041780087
:103308006f4061000080fb0000004000008040002a
:10331800100798001e009000104078008040780048
:103328000114a1001e009000014878000080fa00f6
:10333800000006000000fa00c0408000d140800074
:1033480061004000e0804800c0408800d14088000b
:103358000dc8bf000004a2000004e000080032000d
:103368001cc8bf000040e8001ce8b7001cc8bf002c
:103378000004e00002003a0000c0eb001ce8b700bf
:103388000080fa00000006000400fa00c240800035
:10339800d3408000028fbe00c0408000d140800032
:1033a8001e01be00800f5100818f5900f7ff3a00bf
:1033b8001e00be000080fa00000006000000fa00af
:1033c8009580a9009560a900800020000028880049
:1033d8000225ef0090012000402888000a25ef0010
:1033e8000c25ef000e25ef001025ef001225ef0049
:1033f8001425ef00c09e200020418800c09e2000b8
:1034080010418800509f200000418800509f2000f4
:10341800f04088002668ef00a0a3210007000700fd
:1034280080a52100140007009560a80001e5a80008
:103438000345a8000080fa00000006000200fa0018
:10344800000f78001e0078000000e00003003a003a
:10345800a0a3210040418800020037009e007800a8
:10346800414188000080fa00000006000000fa00d0
:103478000080fa00000006000200fa00000f780041
:103488001e0078000000e00003003a0080a521003b
:1034980050418800020037009e00780051418800a2
:1034a8000080fa00000006000000fa000080fa0020
:1034b800000006000200fa000040eb00004f780010
:1034c8000000000001418000f0408000808f500023
:1034d800fcff320000418000104f7800004180005e
:1034e8000000e8000041880001418000e09f2000c2
:1034f800808f500002003a00509f20000041880051
:103508001e4078000080fa00000006000200fa0061
:10351800004f7800000000001c0007000004a20013
:103528000004e000fcff3a00104180001e487800cb
:10353800104180000000e80010418800114180001f
:10354800509f2000808f500002003a00c09e20004b
:10355800104188009580a8000080fa00000006004d
:103568000000fa0001418000f040800000806800ff
:1035780000f0a7000000ea000000ea004f00de00ab
:10358800004078000080fa00000006000400fa00fd
:103598002141800011079800114180001e00900011
:1035a800808f5000060031009e009000104180007e
:1035b800008050000000e900000f78000500370087
:1035c8009e0090001041800000805000680040007c
:1035d800000f78001e00780000f0a7000000ea0045
:1035e8000000ea004f00de00004078000080fa008a
:1035f800000006000000fa00114180002041800010
:10360800808f500009003a00112880000010200027
:103618000080600000f0a7000000ea000000ea0057
:103628004f00de0000407800010037000040eb004a
:103638000080fa00000006000400fa00f140800053
:1036480011079800004180009e009000808f500074
:10365800060031009e00900000418000008050006c
:1036680069004000000f7800040037009e009000b9
:103678000041800000805000000f7800f00f20000b
:103688009e007800808f50000200360000c0eb00da
:10369800020037001e007800004078000080fa0021
:1036a800000006000400fa0021418000110798007c
:1036b800114180001e009000808f500006003100ec
:1036c8009e00900010418000008050000000e9003a
:1036d800000f7800050037009e0090001041800020
:1036e8000080500068004000000f7800f00f2000b4
:1036f8009e007800808f50000200360000c0eb006a
:10370800020037001e007800004078000080fa00b0
:10371800000006000800fa0020079800310798000a
:10372800c5ff07000080fb00000f78003e009000f6
:103738009e0f500002003100be009000010f78007b
:103748000000eb00100798000900370059ff070038
:10375800ae009000804878002e0090000000e8003d
:10376800200798001e0090000000e800100798004d
:103778001e0090009e0f5000f4ff39001e007800d4
:103788000080fa00000006000800fa0020079800f0
:1037980031079800c3ff07000080fb00000f780086
:1037a8003e0090009e0f500002003100be009000c5
:1037b800010f78000000eb0010079800090037009f
:1037c8002e00900010407800ae0090008100e800c4
:1037d800210798004dff07001e0090000000e80038
:1037e800100798001e0090009e0f5000f4ff39004b
:1037f8001e0078000080fa00000006000400fa00ad
:103808000000eb00000f78008bff070020479800ae
:10381800a4ff0700304798002e4090000080fb006e
:103828000000e00003003200e90f500003003200fe
:10383800040037001e20a000040037001e00a0006e
:10384800020037001e10a000000000003e4090005b
:103858000080fb000000e00003003200e90f500088
:1038680003003200040037001e30a00002003700b9
:103878001e40a000000000001e0078000080fa0032
:10388800000006000400fa001007980001418000bb
:103898001e009000008f4000020037009e00780054
:1038a800698f5000e09f20009e007800808f5000b4
:1038b800faff3e001e007800104078000080fa00f1
:1038c800000006000000fa005bff07000080fb0014
:1038d8000000e9004f00de00004078000080fa0098
:1038e800000006000000fa006eff07000080fb00e1
:1038f8000000e9004f00de00004078000080fa0078
:10390800000006000000fa00102880000080fa007d
:10391800000006000000fa0062ff07000004e00053
:10392800100032002141800010418000808f50003b
:103938000600360020418000800078001041800099
:10394800008050000000e900070037002041800097
:10395800800078001041800000805000680040001e
:10396800010037000000eb000080fa0000000600ac
:103978000000fa0030ff07000004e00010003200e9
:1039880001418000f0408000808f50000600360022
:103998000041800080007800f040800000805000e6
:1039a8000000e9000700370000418000800078002f
:1039b800f04080000080500068004000010037009f
:1039c8000000eb000080fa00000006000000fa008a
:1039d80001e5a8000345a8000080fa0000000600e1
:1039e8000000fa0001e5a9000345a9000080fa00db
:1039f800000006000000fa0097e0a90097c0a9009f
:103a080080002000b02888001825ef0090012000d1
:103a1800f02888002025ef002225ef002425ef005c
:103a28002625ef002825ef002a25ef00c09e20005c
:103a380020418800c09e200010418800509f20002f
:103a480000418800509f2000f04088002668ef0061
:103a580060d521000700070040d7210014000700a7
:103a680097c0a80017e5a8001945a8000080fa002b
:103a7800000006000200fa00000f78001e0078001f
:103a88000000e00003003a0060d521006041880092
:103a9800020037009e007800614188000080fa002b
:103aa800000006000000fa000080fa00000006008e
:103ab8000200fa00000f78001e0078000000e00005
:103ac80003003a0040d72100704188000200370007
:103ad8009e007800714188000080fa00000006000e
:103ae8000000fa000080fa00000006000200fa0058
:103af8000040eb00004f780000000000014180000a
:103b0800f0408000808f5000fcff320000418000b0
:103b1800104f7800004180000000e8000041880054
:103b280001418000e09f2000808f500002003a0091
:103b3800509f2000004188001e4078000080fa0055
:103b4800000006000200fa00004f780000000000a4
:103b58001c0007000004a2000004e000fcff3a007b
:103b6800104180001e487800104180000000e800e5
:103b78001041880011418000509f2000808f500024
:103b880002003a00c09e20001041880097e0a8007b
:103b98000080fa00000006000000fa0001418000e1
:103ba800f04080000080680000f0a7000000ea00f4
:103bb8000000ea004f00de00004078000080fa00b4
:103bc800000006000400fa00214180001107980057
:103bd800114180001e009000808f500006003100c7
:103be8009e00900010418000008050000000e90015
:103bf800000f7800050037009e00900010418000fb
:103c08000080500068004000000f78001e00780017
:103c180000f0a7000000ea000000ea004f00de0004
:103c2800004078000080fa00000006000000fa005a
:103c38001141800020418000808f500009003a0027
:103c4800c1288000001020000080600000f0a7005c
:103c58000000ea000000ea004f00de0000407800a3
:103c6800010037000040eb000080fa000000060069
:103c78000400fa00f140800011079800004180001c
:103c88009e009000808f5000060031009e0090003a
:103c9800004180000080500069004000000f78005b
:103ca800040037009e009000004180000080500012
:103cb800000f7800f00f20009e007800808f5000e1
:103cc8000200360000c0eb00020037001e0078003a
:103cd800004078000080fa00000006000400fa00a6
:103ce8002141800011079800114180001e009000ba
:103cf800808f5000060031009e0090001041800027
:103d0800008050000000e900000f7800050037002f
:103d18009e00900010418000008050006800400024
:103d2800000f7800f00f20009e007800808f500070
:103d38000200360000c0eb00020037001e007800c9
:103d4800004078000080fa00000006000800fa0031
:103d58002007980031079800c5ff07000080fb0086
:103d6800000f78003e0090009e0f500002003100c6
:103d7800be009000010f78000000eb0010079800cb
:103d88000900370059ff0700ae009000804878000e
:103d98002e0090000000e800200798001e00900008
:103da8000000e800100798001e0090009e0f5000c9
:103db800f4ff39001e0078000080fa0000000600b9
:103dc8000800fa002007980031079800c3ff070091
:103dd8000080fb00000f78003e0090009e0f50000e
:103de80002003100be009000010f78000000eb00d7
:103df80010079800090037002e0090001040780046
:103e0800ae0090008100e800210798004dff0700f0
:103e18001e0090000000e800100798001e009000a7
:103e28009e0f5000f4ff39001e0078000080fa0051
:103e3800000006000400fa000000eb00000f780004
:103e48008bff070020479800a4ff07003047980021
:103e58002e4090000080fb000000e00003003200cc
:103e6800e90f500003003200040037001e20a000b4
:103e7800040037001e00a000020037001e10a0003a
:103e8800000000003e4090000080fb000000e000c1
:103e980003003200e90f500003003200040037002d
:103ea8001e30a000020037001e40a00000000000e5
:103eb8001e0078000080fa00000006000400fa00e6
:103ec80010079800014180001e009000008f4000fc
:103ed800020037009e007800698f5000e09f2000a4
:103ee8009e007800808f5000faff3e001e00780088
:103ef800104078000080fa00000006000000fa0078
:103f08005bff07000080fb000000e9004f00de00b7
:103f1800004078000080fa00000006000000fa0067
:103f28006eff07000080fb000000e9004f00de0084
:103f3800004078000080fa00000006000000fa0047
:103f4800c02880000080fa00000006000000fa0087
:103f580062ff07000004e0001000320021418000e9
:103f680010418000808f50000600360020418000fc
:103f78008000780010418000008050000000e900b7
:103f88000700370020418000800078001041800041
:103f98000080500068004000010037000000eb007e
:103fa8000080fa00000006000000fa0030ff070059
:103fb8000004e0001000320001418000f040800061
:103fc800808f500006003600004180008000780095
:103fd800f0408000008050000000e9000700370032
:103fe8000041800080007800f04080000080500090
:103ff80068004000010037000000eb000080fa0074
:10400800000006000000fa0017e5a8001945a800fe
:104018000080fa00000006000000fa0017e5a90079
:104028001945a9000080fa00000006000000fa0007
:104038009e60a9009e40a900800020006029880099
:104048002e25ef0090012000a02988003625ef00da
:10405800c09e200020418800c09e2000104188009a
:10406800509f200000418800509f2000f0408800a9
:104078002668ef008006220007000700600822007b
:10408800140007009e40a8002de5a8002f45a800b1
:104098000080fa00000006000200fa00000f780015
:1040a8001e0078000000e00003003a0080062200ad
:1040b80080418800020037009e0078008141880016
:1040c8000080fa00000006000000fa000080fa00f4
:1040d800000006000200fa00000f78001e007800b9
:1040e8000000e00003003a006008220090418800c8
:1040f800020037009e007800914188000080fa0095
:10410800000006000000fa000080fa000000060027
:104118000200fa000040eb00004f780000000000a9
:1041280001418000f0408000808f5000fcff320089
:1041380000418000104f7800004180000000e80036
:104148000041880001418000e09f2000808f5000de
:1041580002003a00509f2000004188001e4078006d
:104168000080fa00000006000200fa00004f780004
:10417800000000001c0007000004a2000004e0008a
:10418800fcff3a00104180001e4878001041800072
:104198000000e8001041880011418000509f200075
:1041a800808f500002003a00c09e20001041880015
:1041b8009e60a8000080fa00000006000000fa00d7
:1041c80001418000f04080000080680000f0a700f6
:1041d8000000ea000000ea004f00de00004078001e
:1041e8000080fa00000006000400fa002141800067
:1041f80011079800114180001e009000808f500028
:10420800060031009e0090001041800000805000a0
:104218000000e900000f7800050037009e009000bc
:10422800104180000080500068004000000f7800b6
:104238001e00780000f0a7000000ea000000ea0075
:104248004f00de00004078000080fa000000060001
:104258000000fa001141800020418000808f50004a
:1042680009003a00712980000010200000806000d9
:1042780000f0a7000000ea000000ea004f00de009e
:1042880000407800010037000040eb000080fa0091
:10429800000006000400fa00f140800011079800b1
:1042a800004180009e009000808f50000600310081
:1042b8009e0090000041800000805000690040008e
:1042c800000f7800040037009e0090000041800035
:1042d80000805000000f7800f00f20009e0078004a
:1042e800808f50000200360000c0eb00020037004b
:1042f8001e007800004078000080fa0000000600e8
:104308000400fa0021418000110798001141800043
:104318001e009000808f5000060031009e00900023
:1043280010418000008050000000e900000f780074
:10433800050037009e00900010418000008050006a
:1043480068004000000f7800f00f20009e00780001
:10435800808f50000200360000c0eb0002003700da
:104368001e007800004078000080fa000000060077
:104378000800fa002007980031079800c5ff0700d9
:104388000080fb00000f78003e0090009e0f500058
:1043980002003100be009000010f78000000eb0021
:1043a800100798000900370059ff0700ae00900079
:1043b800804878002e0090000000e8002007980050
:1043c8001e0090000000e800100798001e009000f2
:1043d8009e0f5000f4ff39001e0078000080fa009c
:1043e800000006000800fa0020079800310798002e
:1043f800c3ff07000080fb00000f78003e0090001c
:104408009e0f500002003100be009000010f78009e
:104418000000eb0010079800090037002e009000fc
:1044280010407800ae0090008100e8002107980055
:104438004dff07001e0090000000e80010079800dc
:104448001e0090009e0f5000f4ff39001e007800f7
:104458000080fa00000006000400fa000000eb00eb
:10446800000f78008bff070020479800a4ff070083
:10447800304798002e4090000080fb000000e000cc
:1044880003003200e90f5000030032000400370037
:104498001e20a000040037001e00a0000200370004
:1044a8001e10a000000000003e4090000080fb00ad
:1044b8000000e00003003200e90f50000300320062
:1044c800040037001e30a000020037001e40a00084
:1044d800000000001e0078000080fa0000000600be
:1044e8000400fa0010079800014180001e009000a7
:1044f800008f4000020037009e007800698f50004e
:10450800e09f20009e007800808f5000faff3e0058
:104518001e007800104078000080fa0000000600b5
:104528000000fa005bff07000080fb000000e900c4
:104538004f00de00004078000080fa00000006000e
:104548000000fa006eff07000080fb000000e90091
:104558004f00de00004078000080fa0000000600ee
:104568000000fa00702980000080fa0000000600b0
:104578000000fa0062ff07000004e00010003200ab
:104588002141800010418000808f500006003600d5
:104598002041800080007800104180000080500099
:1045a8000000e90007003700204180008000780003
:1045b8001041800000805000680040000100370072
:1045c8000000eb000080fa00000006000000fa007e
:1045d80030ff07000004e0001000320001418000b5
:1045e800f0408000808f50000600360000418000b7
:1045f80080007800f0408000008050000000e90052
:10460800070037000041800080007800f0408000fb
:104618000080500068004000010037000000eb00f7
:104628000080fa00000006000000fa002de5a8004e
:104638002f45a8000080fa00000006000000fa00dc
:104648002de5a9002f45a9000080fa00000006000a
:104658000000fa009f20a9009f00a9008000200008
:10466800c02988003a25ef0090012000002a880020
:104678004225ef00c09e200020418800c09e2000f7
:1046880010418800509f200000418800509f200062
:10469800f04088002668ef00a037220007000700d6
:1046a80080392200140007009f00a80039e5a800ff
:1046b8003b45a8000080fa00000006000200fa004e
:1046c800000f78001e0078000000e00003003a00a8
:1046d800a0372200a0418800020037009e00780021
:1046e800a14188000080fa00000006000000fa00de
:1046f8000080fa00000006000200fa00000f7800af
:104708001e0078000000e00003003a008039220013
:10471800b0418800020037009e007800b14188004f
:104728000080fa00000006000000fa000080fa008d
:10473800000006000200fa000040eb00004f78007d
:104748000000000001418000f0408000808f500090
:10475800fcff320000418000104f780000418000cb
:104768000000e8000041880001418000e09f20002f
:10477800808f500002003a00509f200000418800be
:104788001e4078000080fa00000006000200fa00cf
:10479800004f7800000000001c0007000004a20081
:1047a8000004e000fcff3a00104180001e48780039
:1047b800104180000000e80010418800114180008d
:1047c800509f2000808f500002003a00c09e2000b9
:1047d800104188009f20a8000080fa000000060011
:1047e8000000fa0001418000f0408000008068006d
:1047f80000f0a7000000ea000000ea004f00de0019
:10480800004078000080fa00000006000400fa006a
:104818002141800011079800114180001e0090007e
:10482800808f5000060031009e00900010418000eb
:10483800008050000000e900000f780005003700f4
:104848009e009000104180000080500068004000e9
:10485800000f78001e00780000f0a7000000ea00b2
:104868000000ea004f00de00004078000080fa00f7
:10487800000006000000fa0011418000204180007d
:10488800808f500009003a00d129800000102000d4
:104898000080600000f0a7000000ea000000ea00c5
:1048a8004f00de0000407800010037000040eb00b8
:1048b8000080fa00000006000400fa00f1408000c1
:1048c80011079800004180009e009000808f5000e2
:1048d800060031009e0090000041800000805000da
:1048e80069004000000f7800040037009e00900027
:1048f8000041800000805000000f7800f00f200079
:104908009e007800808f50000200360000c0eb0047
:10491800020037001e007800004078000080fa008e
:10492800000006000400fa002141800011079800e9
:10493800114180001e009000808f50000600310059
:104948009e00900010418000008050000000e900a7
:10495800000f7800050037009e009000104180008d
:104968000080500068004000000f7800f00f200021
:104978009e007800808f50000200360000c0eb00d7
:10498800020037001e007800004078000080fa001e
:10499800000006000800fa00200798003107980078
:1049a800c5ff07000080fb00000f78003e00900064
:1049b8009e0f500002003100be009000010f7800e9
:1049c8000000eb00100798000900370059ff0700a6
:1049d800ae009000804878002e0090000000e800ab
:1049e800200798001e0090000000e80010079800bb
:1049f8001e0090009e0f5000f4ff39001e00780042
:104a08000080fa00000006000800fa00200798005d
:104a180031079800c3ff07000080fb00000f7800f3
:104a28003e0090009e0f500002003100be00900032
:104a3800010f78000000eb0010079800090037000c
:104a48002e00900010407800ae0090008100e80031
:104a5800210798004dff07001e0090000000e800a5
:104a6800100798001e0090009e0f5000f4ff3900b8
:104a78001e0078000080fa00000006000400fa001a
:104a88000000eb00000f78008bff0700204798001c
:104a9800a4ff0700304798002e4090000080fb00dc
:104aa8000000e00003003200e90f5000030032006c
:104ab800040037001e20a000040037001e00a000dc
:104ac800020037001e10a000000000003e409000c9
:104ad8000080fb000000e00003003200e90f5000f6
:104ae80003003200040037001e30a0000200370027
:104af8001e40a000000000001e0078000080fa00a0
:104b0800000006000400fa00100798000141800028
:104b18001e009000008f4000020037009e007800c1
:104b2800698f5000e09f20009e007800808f500021
:104b3800faff3e001e007800104078000080fa005e
:104b4800000006000000fa005bff07000080fb0081
:104b58000000e9004f00de00004078000080fa0005
:104b6800000006000000fa006eff07000080fb004e
:104b78000000e9004f00de00004078000080fa00e5
:104b8800000006000000fa00d02980000080fa002a
:104b9800000006000000fa0062ff07000004e000c1
:104ba800100032002141800010418000808f5000a9
:104bb8000600360020418000800078001041800007
:104bc800008050000000e900070037002041800005
:104bd800800078001041800000805000680040008c
:104be800010037000000eb000080fa00000006001a
:104bf8000000fa0030ff07000004e0001000320057
:104c080001418000f0408000808f5000060036008f
:104c18000041800080007800f04080000080500053
:104c28000000e9000700370000418000800078009c
:104c3800f04080000080500068004000010037000c
:104c48000000eb000080fa00000006000000fa00f7
:104c580039e5a8003b45a8000080fa0000000600de
:104c68000000fa0039e5a9003b45a9000080fa00d8
:104c7800000006000000fa00909a2000104078001a
:104c88007f406000e14f500078003a00909a200081
:104c98001040780002c6b3008240600000c2b30032
:104ca80080cf500073003a00d09a2000104078005e
:104cb8000004e00004003200d09a20001040780080
:104cc800e14f50006d003a00a09a20001040780093
:104cd8000080fb0001022000810f500020003200fc
:104ce80001022000810f500005003c000000e00098
:104cf8000a003200e10f5000130032006000370054
:104d080011022000810f50004300320021022000d0
:104d1800810f5000480032005900370000902000f1
:104d2800b04c880080002000d04c8800c04c800027
:104d38000000a000c04c8800c04c80000070a0009b
:104d4800c04c88004e00370000902000b04c88000e
:104d5800c04c80000070a000c04c8800480037009c
:104d6800f09a20001080fb00019b20009180fb003e
:104d7800c808dd0001007000f10f2000010160008b
:104d8800f199200091417800e0c1610002c17100f1
:104d980082487800c800de00009a200010417800a0
:104da800604161008140710001487800e08e200078
:104db800f10f200001016000c199200091417800a5
:104dc800e0c1610002c1710082487800c800de00bd
:104dd800d099200010417800604161008140710045
:104de80001487800109a200090407800e0c06000e8
:104df80001487800209a200090407800e0c06000c8
:104e080001487800e0992000904078000174a000e3
:104e1800014878001a003700e08e2000b04c880066
:104e280070002000d04c88008099200011ccb3007d
:104e38000148780012003700b09a20001080fb006b
:104e4800c19a20009180fb00c808dd0001007000b5
:104e5800004078005ce8b700c04c80000070a000fb
:104e6800c04c88000000000005003700000000006a
:104e780003003700000000000100370000000000b8
:104e88000080fa00000006000000fa0000b02400cc
:104e9800010020007047880081478800208f20008b
:104ea8008040eb0001487800308f20008040eb0004
:104eb80001487800408f200081c0b3000148780085
:104ec8005068ef0051c1b30010c0b300aff2070043
:104ed800d1c1b30020c0b300acf2070003c4b300d3
:104ee800e28a20008040eb0020c0b300c4f2070033
:104ef800c04288005a28ef005168ef000080fa008d
:104f0800000006000600fa00000f7800110798005c
:104f1800220798001e007800e50f500012003a00a2
:104f2800c04280009e009000808f500006003a002a
:104f380003c4b300e28a20008040eb0020c0b30025
:104f4800aff20700c0428800d04280009e00900067
:104f5800808f500002003a005168ef005668ef0059
:104f680010c0b300010037000040eb000080fa00d9
:104f7800000006000400fa00000f7800214798009e
:104f88005068ef00c04280000000e00006003200d8
:104f9800c042800090007800000028000080600077
:104fa8000000e00021003a00c042800090407800f4
:104fb8002e40900080cf500003003100c042800096
:104fc80090407800214798005068ef000c003700a7
:104fd80050c8bf000080fb001e0040000185200073
:104fe800914078008180fb00e28a2000e2c07800ce
:104ff8000148780050c8bf000040e80050e8b700fa
:1050080001852000914078002e40900080cf50000c
:10501800efff390003c4b300e28a20008040eb00b0
:1050280020c0b30076f20700c042880050c8bf0015
:105038000080fa00000006000400fa00000f780063
:10504800214798009ec0a90051c8bf000004e00095
:1050580009003a009e00780091428800ae40900016
:10506800628520000149780010c0b30057e8b700f6
:1050780010c0b30051e8b7009ec0a8000080fa0035
:10508800000006000600fa00200798009ec0a9004c
:1050980051c8bf000004e000020032009ec0a80012
:1050a8001f0037000040eb00004f7800ae00900072
:1050b800110798001e4fe8001e407800e14f40009d
:1050c8000c0032001e009000104078000080fb00a9
:1050d8000000ea004f00de00004078009e009000cb
:1050e8008100e800110798000004e000f1ff3a0091
:1050f80001003700000000002e0090009042880058
:105108009e407800628520000149780010c0b300f5
:1051180057e8b70010c0b30051e8b7009ec0a80018
:105128000080fa00000006000600fa002007980038
:105138009ec0a90051c8bf000004e0000200320070
:105148009ec0a8001e0037000040eb00004f78000a
:10515800ae009000110798001e4fe8001e4078002e
:10516800e14f40000c0032001e0090001040780013
:105178000080fb000000ea004f00de0000407800dd
:105188009e0090008100e800110798000004e000ec
:10519800f1ff3a0001003700000000002e009000e7
:1051a800904288009e40780062852000014978007e
:1051b8005768ef0010c0b30051e8b7009ec0a800c0
:1051c8000080fa00000006000200fa009ec0a90054
